:020000040800F2
:10000000005000203D480008E9440008F144000881
:10001000F9440008014500080945000800000000F7
:100020000000000000000000000000001145000872
:100030001D4500080000000029450008354500085E
:10004000854800088548000885480008854800085C
:10005000854800088548000885480008854800084C
:10006000854800088548000885480008854800083C
:10007000854800088548000885480008854800082C
:10008000854800088548000885480008854800081C
:10009000854800088548000885480008854800080C
:1000A00085480008854800088548000885480008FC
:1000B00085480008854800088548000885480008EC
:1000C00085480008854800088548000885480008DC
:1000D00085480008854800088548000885480008CC
:1000E0008548000885480008854800080000000091
:1000F0000000000000000000000000000000000000
:0C01000000000000000000005FF808F1A3
:10010C0081F0004102E000BF83F0004330B54FEABC
:10011C0041044FEA430594EA050F08BF90EA020F29
:10012C001FBF54EA000C55EA020C7FEA645C7FEABC
:10013C00655C00F0E2804FEA5454D4EB5555B8BFDF
:10014C006D420CDD2C4480EA020281EA030382EA50
:10015C00000083EA010180EA020281EA0303362DE2
:10016C0088BF30BD11F0004F4FEA01314FF4801CB5
:10017C004CEA113102D0404261EB410113F0004FC7
:10018C004FEA03334CEA133302D0524263EB43037E
:10019C0094EA050F00F0A780A4F10104D5F1200E1C
:1001AC000DDB02FA0EFC22FA05F2801841F1000177
:1001BC0003FA0EF2801843FA05F359410EE0A5F14B
:1001CC0020050EF1200E012A03FA0EFC28BF4CF07C
:1001DC00020C43FA05F3C01851EBE37101F0004532
:1001EC0007D54FF0000EDCF1000C7EEB00006EEB3F
:1001FC000101B1F5801F1BD3B1F5001F0CD34908C9
:10020C005FEA30004FEA3C0C04F101044FEA44521F
:10021C0012F5800F80F09A80BCF1004F08BF5FEAA6
:10022C00500C50F1000041EB045141EA050130BD86
:10023C005FEA4C0C404141EB0101013C28BFB1F598
:10024C00801FE9D291F0000F04BF01460020B1FAE3
:10025C0081F308BF2033A3F10B03B3F120020CDAB6
:10026C000C3208DD02F1140CC2F10C0201FA0CF094
:10027C0021FA02F10CE002F11402D8BFC2F1200CF9
:10028C0001FA02F120FA0CFCDCBF41EA0C019040AF
:10029C00E41AA2BF01EB0451294330BD6FEA0404F8
:1002AC001F3C1CDA0C340EDC04F11404C4F12002E3
:1002BC0020FA04F001FA02F340EA030021FA04F3F5
:1002CC0045EA030130BDC4F10C04C4F1200220FA4C
:1002DC0002F001FA04F340EA0300294630BD21FA8A
:1002EC0004F0294630BD94F0000F83F4801306BF50
:1002FC0081F480110134013D4EE77FEA645C18BF44
:10030C007FEA655C29D094EA050F08BF90EA020FDA
:10031C0005D054EA000C04BF1946104630BD91EAD2
:10032C00030F1EBF0021002030BD5FEA545C05D1D5
:10033C004000494128BF41F0004130BD14F5800414
:10034C003CBF01F5801130BD01F0004545F0FE4188
:10035C0041F470014FF0000030BD7FEA645C1ABFBD
:10036C00194610467FEA655C1CBF0B46024650EAF4
:10037C00013406BF52EA033591EA030F41F4002120
:10038C0030BD00BF90F0000F04BF0021704730B5A6
:10039C004FF4806404F132044FF000054FF000017B
:1003AC0050E700BF90F0000F04BF0021704730B53C
:1003BC004FF4806404F1320410F0004548BF404211
:1003CC004FF000013EE700BF42004FEAE2014FEA66
:1003DC0031014FEA02701FBF12F07F4393F07F4F41
:1003EC0081F06051704732F07F4208BF704793F044
:1003FC007F4F04BF41F40021704730B54FF4607457
:10040C0001F0004521F000411CE700BF50EA010259
:10041C0008BF704730B54FF000050AE050EA010202
:10042C0008BF704730B511F0004502D5404261EB72
:10043C0041014FF4806404F132045FEA915C3FF4B3
:10044C00D8AE4FF003025FEADC0C18BF03325FEA50
:10045C00DC0C18BF033202EBDC02C2F1200300FA01
:10046C0003FC20FA02F001FA03FE40EA0E0021FA26
:10047C0002F11444BDE600BF80F0004002E000BF72
:10048C0081F0004142001FBF5FEA410392EA030F73
:10049C007FEA226C7FEA236C6AD04FEA1262D2EBBD
:1004AC001363C1BFD218414048404140B8BF5B42C2
:1004BC00192B88BF704710F0004F40F4000020F05B
:1004CC007F4018BF404211F0004F41F4000121F071
:1004DC007F4118BF494292EA030F3FD0A2F10102BB
:1004EC0041FA03FC10EB0C00C3F1200301FA03F1F9
:1004FC0000F0004302D5494260EB4000B0F5000F1C
:10050C0013D3B0F1807F06D340084FEA310102F1DA
:10051C000102FE2A51D2B1F1004F40EBC25008BF8C
:10052C0020F0010040EA03007047490040EB000056
:10053C00013A28BFB0F5000FEDD2B0FA80FCACF157
:10054C00080CB2EB0C0200FA0CF0AABF00EBC25084
:10055C0052421843BCBFD0401843704792F0000F72
:10056C0081F4000106BF80F400000132013BB5E7C5
:10057C004FEA41037FEA226C18BF7FEA236C21D03B
:10058C0092EA030F04D092F0000F08BF08467047A0
:10059C0090EA010F1CBF0020704712F07F4F04D16E
:1005AC00400028BF40F00040704712F100723CBF81
:1005BC0000F50000704700F0004343F0FE4040F4AB
:1005CC00000070477FEA226216BF08467FEA236369
:1005DC000146420206BF5FEA412390EA010F40F454
:1005EC00800070474FF0000304E000BF10F00043A0
:1005FC0048BF40425FEA000C08BF704743F0964387
:10060C0001464FF000001CE050EA010208BF7047A1
:10061C004FF000030AE000BF50EA010208BF704728
:10062C0011F0004302D5404261EB41015FEA010C3D
:10063C0002BF84460146002043F0B64308BFA3F135
:10064C008053A3F50003BCFA8CF2083AA3EBC25317
:10065C0010DB01FA02FC634400FA02FCC2F1200236
:10066C00BCF1004F20FA02F243EB020008BF20F06D
:10067C000100704702F1200201FA02FCC2F12002D3
:10068C0050EA4C0021FA02F243EB020008BF20EAC8
:10069C00DC7070474FF0FF0C1CEAD0521EBF1CEAF6
:1006AC00D15392EA0C0F93EA0C0F6FD01A4480EAE4
:1006BC00010C400218BF5FEA41211ED04FF00063CD
:1006CC0043EA501043EA5111A0FB01310CF00040F9
:1006DC00B1F5000F3EBF490041EAD3715B0040EA1F
:1006EC00010062F17F02FD2A1DD8B3F1004F40EBEF
:1006FC00C25008BF20F00100704790F0000F0CF0C2
:10070C00004C08BF49024CEA502040EA51207F3A85
:10071C00C2BFD2F1FF0340EAC250704740F4000060
:10072C004FF00003013A5DDC12F1190FDCBF00F051
:10073C0000407047C2F10002410021FA02F1C2F1FF
:10074C00200200FA02FC5FEA310040F1000053EA9B
:10075C004C0308BF20EADC70704792F0000F00F0E9
:10076C00004C02BF400010F4000F013AF9D040EAEF
:10077C000C0093F0000F01F0004C02BF490011F483
:10078C00000F013BF9D041EA0C018FE70CEAD15381
:10079C0092EA0C0F18BF93EA0C0F0AD030F0004C01
:1007AC0018BF31F0004CD8D180EA010000F00040B5
:1007BC00704790F0000F17BF90F0004F084691F073
:1007CC00000F91F0004F14D092EA0C0F01D14202AD
:1007DC000FD193EA0C0F03D14B0218BF084608D176
:1007EC0080EA010000F0004040F0FE4040F40000C0
:1007FC00704740F0FE4040F4400070474FF0FF0C53
:10080C001CEAD0521EBF1CEAD15392EA0C0F93EA99
:10081C000C0F69D0A2EB030280EA010C49024FEAEB
:10082C00402037D04FF0805343EA111143EA1013A4
:10083C000CF000408B4238BF5B0042F17D024FF45C
:10084C00000C8B4224BF5B1A40EA0C00B3EB510F37
:10085C0024BFA3EB510340EA5C00B3EB910F24BF20
:10086C00A3EB910340EA9C00B3EBD10F24BFA3EBA5
:10087C00D10340EADC001B0118BF5FEA1C1CE0D16D
:10088C00FD2A3FF650AF8B4240EBC25008BF20F020
:10089C00010070470CF0004C4CEA50207F32C2BF74
:1008AC00D2F1FF0340EAC250704740F400004FF011
:1008BC000003013A37E792F0000F00F0004C02BF42
:1008CC00400010F4000F013AF9D040EA0C0093F00C
:1008DC00000F01F0004C02BF490011F4000F013B66
:1008EC00F9D041EA0C0195E70CEAD15392EA0C0FCE
:1008FC0008D142027FF47DAF93EA0C0F7FF470AF06
:10090C00084676E793EA0C0F04D14B023FF44CAF48
:10091C0008466EE730F0004C18BF31F0004CCAD1DD
:10092C0030F000427FF45CAF31F000437FF43CAF19
:10093C005FE700BF4FF0FF3C06E000BF4FF0010C3B
:10094C0002E000BF4FF0010C4DF804CD4FEA40021D
:10095C004FEA41037FEA226C18BF7FEA236C11D067
:10096C0001B052EA530C18BF90EA010F58BFB2EB1A
:10097C00030088BFC81738BF6FEAE17018BF40F09A
:10098C00010070477FEA226C02D15FEA402C05D14E
:10099C007FEA236CE4D15FEA412CE1D05DF8040BD3
:1009AC00704700BF844608466146FFE70FB5FFF766
:1009BC00C9FF002848BF10F1000F0FBD4DF808ED1E
:1009CC00FFF7F4FF0CBF012000205DF808FB00BF0F
:1009DC004DF808EDFFF7EAFF34BF012000205DF869
:1009EC0008FB00BF4DF808EDFFF7E0FF94BF0120B6
:1009FC0000205DF808FB00BF4DF808EDFFF7D2FFB3
:100A0C0094BF012000205DF808FB00BF4DF808EDF5
:100A1C00FFF7C8FF34BF012000205DF808FB00BFC2
:100A2C000348044B834202D0034B03B11847704771
:100A3C007C0000207C000020000000000548064BD4
:100A4C001B1AD90F01EBA301491002D0034B03B1C0
:100A5C00184770477C0000207C000020000000003C
:100A6C0010B5064C237843B9FFF7DAFF044B13B1EA
:100A7C000448AFF300800123237010BD7C000020DC
:100A8C0000000000F475000808B5054B1BB10549C2
:100A9C000548AFF30080BDE80840FFF7CFBF00BFAB
:100AAC000000000080000020F4750008002310B541
:100ABC000446C0E90033C0E9043383608181436696
:100ACC00C2818361194608225C3000F0F7F80D4BA7
:100ADC00246263620C4BA3620C4BE3620C4B2363EA
:100AEC000C4B9C4206D003F16802944202D0D033E6
:100AFC009C4205D104F15800BDE8104000F050B9FB
:100B0C0010BD00BF410C0008630C00089B0C0008D2
:100B1C00C10C000898000020024A0349034800F069
:100B2C006BB800BF000000209D10000810000020D2
:100B3C0041680C4B10B59942044601D000F0A8FA5C
:100B4C00A168094B994202D0204600F0A1FAE16855
:100B5C00064B994204D02046BDE8104000F098BAEC
:100B6C0010BD00BF9800002000010020680100208B
:100B7C000C4B0D4A10B504211A600C480022FFF7EB
:100B8C0095FF0A4B01221C46092103F16800FFF76F
:100B9C008DFF04F1D0000222BDE810401221FFF7B6
:100BAC0085BF00BFD0010020250B00089800002055
:100BBC00014800F0F6B800BFD9010020014800F050
:100BCC00F1B800BFD901002010B50446FFF7F0FFC3
:100BDC00236A1BB1BDE81040FFF7F0BF044B236242
:100BEC00044B1B68002BF5D1FFF7C2FFF2E700BFE7
:100BFC003D0B0008D00100202DE9F843074688463C
:100C0C0014460026D4E90195B9F1010905D52468EB
:100C1C00002CF7D13046BDE8F883AB89012B07D9FE
:100C2C00B5F90E30013303D029463846C047064388
:100C3C006835E9E710B50C46B1F90E1000F068F80C
:100C4C000028ABBF636DA3891B1823F48053ACBF82
:100C5C006365A38110BD2DE9F0411F468B890546C4
:100C6C00DB050C46164605D502230022B1F90E1001
:100C7C0000F03CF8A389324623F48053A381284624
:100C8C003B46B4F90E10BDE8F04100F053B810B576
:100C9C000C46B1F90E1000F029F8B4F90C30421CD6
:100CAC000BBF23F4805343F48053A381A38118BF5B
:100CBC00606510BDB1F90E1000F008B8034602448F
:100CCC00934200D1704703F8011BF9E738B50023B4
:100CDC00054D044608462B6003F079FD431C02D1F8
:100CEC002B6803B1236038BDD401002038B504460D
:100CFC00084611460022054D2A601A4603F08BFD6A
:100D0C00431C02D12B6803B1236038BDD4010020F1
:100D1C0038B50446084611460022054D2A601A468D
:100D2C0003F038FD431C02D12B6803B1236038BD9E
:100D3C00D401002038B50446084611460022054D62
:100D4C002A601A4604F0FEFF431C02D12B6803B143
:100D5C00236038BDD401002070B500260C4D0D4B1E
:100D6C005B1B9C10A64209D1002606F03DFC0A4DE7
:100D7C000A4B5B1B9C10A64205D170BD55F8043B79
:100D8C0098470136EEE755F8043B98470136F2E7F1
:100D9C00EC800008EC800008EC800008F080000873
:100DAC00704770477047000038B50546002940D0A1
:100DBC0051F8043C0C1F002BB8BFE41800F0DEF80F
:100DCC001C4A136833B9636014602846BDE8384088
:100DDC0000F0DAB8A34208D9206821188B4201BF71
:100DEC0019685B6809182160EDE71A465B680BB15E
:100DFC00A342FAD911685018A0420BD120680144C3
:100E0C00501883421160E0D118685B680844106088
:100E1C005360DAE702D90C232B60D6E7206821183F
:100E2C008B4201BF19685B680918216063605460CC
:100E3C00CBE738BDE001002070B50F4E0C46316891
:100E4C00054611B900F04CF930602146284600F0F7
:100E5C0047F9431C03D14FF0FF34204670BDC41C2E
:100E6C0024F00304A042F8D0211A284600F038F9E7
:100E7C000130F2D1EFE700BFDC0100202DE9F8438F
:100E8C00CD1C25F0030508350C2D38BF0C25002D85
:100E9C00064601DBA94204D90C2333600020BDE8CF
:100EAC00F883DFF8D48000F069F8D8F800301C46DD
:100EBC0044BB29463046FFF7BFFF431C044658D1BC
:100ECC00D8F800402746002F43D1002C4BD0236884
:100EDC003946304604EB030900F002F9814542D152
:100EEC00216830466D1A2946FFF7A6FF01303AD02B
:100EFC0023682B442360D8F800305A6862BBC8F8CA
:100F0C0000700FE02268521B20D40B2A17D96119EC
:100F1C00A342256018BF5960636808BFC8F8001069
:100F2C0062514B60304600F02FF804F10B00231D8A
:100F3C0020F00700C21A1CBF1B1AA350AFE762684F
:100F4C00A3420CBFC8F800205A60EBE72346646844
:100F5C00AEE73C467F68B6E71A465B68A342FBD116
:100F6C0000235360DEE70C233046336000F00CF8AE
:100F7C0094E70560D6E700BFE00100200148FFF7C9
:100F8C0010BF00BFD80100200148FFF70BBF00BF06
:100F9C00D8010020B1F90C20F8B5160705460C460F
:100FAC0051D44B68002B02DC0B6C002B49DDE66A3C
:100FBC00002E46D0002312F480522F682B6031D0C3
:100FCC00626DA389590705D56368D21A636B0BB19F
:100FDC00236CD21A00232846E66A216AB047421CC9
:100FEC00B4F90C3006D129681D2945D8274ACA40C6
:100FFC00D60741D5002262602269D904226004D54B
:10100C00421C01D12B6803B96065616B2F60C1B1C3
:10101C0004F14403994202D02846FFF7C5FE002391
:10102C0063630EE001232846216AB0470246501C38
:10103C00C7D12B68002BC4D01D2B01D0162B19D176
:10104C002F6000201DE00F69002FFAD0930718BF06
:10105C0000230E6808BF4B69F61B0F608B60002ED7
:10106C00EFDD33463A462846216AD4F828C0E047DB
:10107C00002807DCB4F90C304FF0FF3043F040038C
:10108C00A381F8BD0744361AE9E700BF01004020F0
:10109C0038B50B6905460C4613B90025284638BDF2
:1010AC0018B1036A0BB9FFF78FFDB4F90C30002BA4
:1010BC00F3D0626ED00704D4990502D4A06DFFF76B
:1010CC0070FE28462146FFF765FF636E0546DA077A
:1010DC00E4D4A3899B05E1D4A06DFFF763FEDDE7A3
:1010EC0038B50023054D044608462B6003F01CFB65
:1010FC00431C02D12B6803B1236038BDD4010020FE
:10110C0080B400AF00BFBD4680BC704780B586B0D0
:10111C0000AF78600023FB7500233B610023BB60AC
:10112C000023FB607B68002B01D10123BEE07B68B0
:10113C009B68002B7B689B6A002B09D17B68002283
:10114C00DA627B68002283F82420786803F024FAA2
:10115C00786800F0F1FB0346FB757B689B6A03F033
:10116C001003002B40F09980FB7D002B40F0958004
:10117C007B689B6A23F4885323F0020343F002023A
:10118C007B689A627B685A687B68DB691A437B6868
:10119C001B7B5B001343BA681343BB607B689B6883
:1011AC00B3F5807F03D07B689B68012B02D14FF491
:1011BC00807300E000233A6913433B617B681B7D1D
:1011CC00012B19D17B681B7B002B09D17B689B6998
:1011DC00013B5A033B69134343F400633B610BE04F
:1011EC007B689B6A43F020027B689A627B68DB6AAF
:1011FC0043F001027B68DA627B681B685B6823F44E
:10120C0069417B681B683A690A435A607B681B68B2
:10121C009A68284B13407A681268B9680B4393603C
:10122C007B689B68B3F5807F03D07B689B68012B40
:10123C0004D17B681B69013B1B05FB607B681B6849
:10124C00DB6A23F470017B681B68FA680A43DA6274
:10125C007B681B689A68184B1340BA689A420BD18A
:10126C007B680022DA627B689B6A23F0030343F0FD
:10127C0001027B689A6218E07B689B6A23F0120378
:10128C0043F010027B689A627B68DB6A43F00102D0
:10129C007B68DA620123FB7507E07B689B6A43F08D
:1012AC0010027B689A620123FB75FB7D1846183788
:1012BC00BD4680BDFDF7E1FFFE0E1FFF80B584B07B
:1012CC0000AF78600023FB737B6893F82430012B0C
:1012DC0001D1022398E07B68012283F824207868EE
:1012EC0000F0D0FA0346FB73FB7B002B40F08780A9
:1012FC007B689B6A23F4407323F0010343F48072F0
:10130C007B689A627B681B68414A934205D1414BCA
:10131C005B6803F47023002B15D17B689B6A23F464
:10132C0080127B689A627B681B685B6803F480633D
:10133C00002B26D07B689B6A23F4405343F48052E5
:10134C007B689A621DE07B689B6A43F480127B6821
:10135C009A627B681B682F4A934204D07B681B6897
:10136C002B4A93420DD12B4B5B6803F48063002B0B
:10137C0007D07B689B6A23F4405343F480527B680C
:10138C009A627B689B6A03F48053002B06D07B68BF
:10139C00DB6A23F006027B68DA6202E07B680022DB
:1013AC00DA627B68002283F824207B681B686FF06C
:1013BC0002021A607B681B689B6803F46023B3F518
:1013CC00602F13D17B681B68114A934205D1114BD6
:1013DC005B6803F47023002B08D17B681B689A6848
:1013EC007B681B6842F4A0029A600CE07B681B6867
:1013FC009A687B681B6842F480129A6003E07B68F1
:10140C00002283F82420FB7B18461037BD4680BD94
:10141C00002801400024014080B584B000AF786002
:10142C000023FB737B6893F82430012B01D102233A
:10143C001AE07B68012283F82420786800F07CFA9B
:10144C000346FB73FB7B002B09D17B689B6A23F45F
:10145C00885323F0010343F001027B689A627B6896
:10146C00002283F82420FB7B18461037BD4680BD34
:10147C0090B587B000AF7860396000237B610023A2
:10148C00FB6000233B6100F0F1FA78617B681B681C
:10149C009B6803F48073002B0BD07B689B6A43F032
:1014AC0020027B689A627B68002283F82420012347
:1014BC00D3E07B681B685B6803F48073002B31D12D
:1014CC007B681B68DB6A03F47003002B2AD121E0D4
:1014DC003B68B3F1FF3F1DD03B68002B07D000F0F9
:1014EC00C5FA02467B69D31A3A689A4212D27B68D3
:1014FC001B681B6803F00203002B0BD17B689B6AF3
:10150C0043F004027B689A627B68002283F82420F3
:10151C000323A2E07B681B681B6803F00203002B0B
:10152C00D6D070E04F4B1C68022000F093FF0346AE
:10153C00B4FBF3F27B681B6819694B4B0B40002B17
:10154C0018D17B681B68D968484B0B40002B11D114
:10155C007B681B681969464B0B40002B08D17B68D4
:10156C001B68D968434B0B40002B01D1142320E09E
:10157C0029231EE07B681B6819693D4B0B40002B2F
:10158C0006D17B681B68D9683A4B0B40002B0DD0F9
:10159C007B681B681969384B0B40002B08D17B68A2
:1015AC001B68D968344B0B40002B01D1542300E04D
:1015BC00FC2302FB03F33B6121E03B68B3F1FF3FEB
:1015CC001AD03B68002B07D000F050FA02467B691A
:1015DC00D31A3A689A420FD2FB683A699A420BD9ED
:1015EC007B689B6A43F004027B689A627B680022EA
:1015FC0083F82420032330E0FB680133FB60FB6895
:10160C003A699A42D9D87B681B686FF012021A604B
:10161C007B689B6A43F400727B689A627B681B68E8
:10162C009B6803F46023B3F5602F15D17B681B7B9B
:10163C00002B11D17B689B6A23F480727B689A62C1
:10164C007B689B6A03F48053002B05D17B689B6AF3
:10165C0043F001027B689A62002318461C37BD4692
:10166C0090BD00BF5C0000202449922424499200C4
:10167C0092244912922449004992240080B483B0E8
:10168C0000AF78607B681B68DB6C18460C37BD4676
:10169C0080BC704780B485B000AF7860396000239F
:1016AC00FB730023BB607B6893F82430012B01D1C2
:1016BC000223DCE07B68012283F824203B685B6812
:1016CC00062B1CD87B681B68596B3B685A68134601
:1016DC009B001344053B1F2202FA03F3DB43194022
:1016EC003B6818683B685A6813469B001344053BDB
:1016FC0000FA03F27B681B680A435A633CE03B68C0
:10170C005B680C2B1CD87B681B68196B3B685A6890
:10171C0013469B001344233B1F2202FA03F3DB43C3
:10172C0019403B6818683B685A6813469B00134481
:10173C00233B00FA03F27B681B680A431A631BE025
:10174C007B681B68D96A3B685A6813469B00134434
:10175C00413B1F2202FA03F3DB4319403B68186834
:10176C003B685A6813469B001344413B00FA03F252
:10177C007B681B680A43DA623B681B68092B1CD91F
:10178C007B681B68D9683B681A6813465B00134476
:10179C001E3B072202FA03F3DB4319403B689868AF
:1017AC003B681A6813465B0013441E3B00FA03F2B5
:1017BC007B681B680A43DA6019E07B681B6819694F
:1017CC003B681A6813465B001344072202FA03F3C2
:1017DC00DB4319403B6898683B681A6813465B000A
:1017EC00134400FA03F27B681B680A431A613B68D6
:1017FC001B68102B03D03B681B68112B32D17B6804
:10180C001B681D4A934225D17B681B689B6803F4B7
:10181C000003002B26D17B681B689A687B681B68C9
:10182C0042F400029A603B681B68102B1AD1134BD0
:10183C001B68134AA2FB03239A0C13469B00134408
:10184C005B00BB6002E0BB68013BBB60BB68002B6C
:10185C00F9D107E07B689B6A43F020027B689A62AF
:10186C000123FB737B68002283F82420FB7B184642
:10187C001437BD4680BC7047002401405C0000203A
:10188C0083DE1B4380B584B000AF78600023FB601F
:10189C000023BB607B681B689B6803F00103012B72
:1018AC0040D07B681B689A687B681B6842F0010219
:1018BC009A601F4B1B681F4AA2FB03239B0CBB6047
:1018CC0002E0BB68013BBB60BB68002BF9D100F0A8
:1018DC00CDF8F8601FE000F0C9F80246FB68D31A97
:1018EC00022B18D97B681B689B6803F00103012B42
:1018FC0011D07B689B6A43F010027B689A627B680C
:10190C00DB6A43F001027B68DA627B68002283F8B1
:10191C002420012307E07B681B689B6803F001030C
:10192C00012BD8D1002318461037BD4680BD00BF0F
:10193C005C00002083DE1B4380B584B000AF786070
:10194C000023FB607B681B689B6803F00103012B81
:10195C002ED17B681B689A687B681B6822F0010299
:10196C009A6000F083F8F8601BE000F07FF8024604
:10197C00FB68D31A022B14D97B681B689B6803F095
:10198C000103012B0DD17B689B6A43F010027B682D
:10199C009A627B68DB6A43F001027B68DA6201239E
:1019AC0007E07B681B689B6803F00103012BDCD00C
:1019BC00002318461037BD4680BD000080B500AF2F
:1019CC00084B1B68074A43F010031360032001F017
:1019DC005BF80F2000F008F802F0ACFD002318466D
:1019EC0080BD00BF0020024080B582B000AF78609F
:1019FC00124B1A68124B1B7819464FF47A73B3FBCF
:101A0C00F1F3B2FBF3F3184601F065F80346002B33
:101A1C0001D001230EE07B680F2B0AD800227968D5
:101A2C004FF0FF3001F03BF8064A7B68136000234F
:101A3C0000E0012318460837BD4680BD5C0000203D
:101A4C00640000206000002080B400AF054B1B78C0
:101A5C001A46054B1B681344034A136000BFBD466E
:101A6C0080BC704764000020E401002080B400AF0B
:101A7C00024B1B681846BD4680BC7047E401002031
:101A8C0080B584B000AF7860FFF7F0FFB8607B687A
:101A9C00FB60FB68B3F1FF3F05D00A4B1B781A467D
:101AAC00FB681344FB6000BFFFF7E0FF0246BB6816
:101ABC00D31AFA689A42F7D800BF00BF1037BD4658
:101ACC0080BD00BF6400002080B586B000AF786098
:101ADC007B68002B01D1012372E27B681B6803F049
:101AEC000103002B00F08780924B5B6803F00C0322
:101AFC00042B0CD08F4B5B6803F00C03082B12D11A
:101B0C008C4B5B6803F48033B3F5803F0BD1894B6E
:101B1C001B6803F40033002B6CD07B685B68002BD4
:101B2C0068D101234CE27B685B68B3F5803F06D13A
:101B3C00804B1B687F4A43F4803313602EE07B6834
:101B4C005B68002B0CD17B4B1B687A4A23F48033E7
:101B5C001360784B1B68774A23F4802313601DE0D5
:101B6C007B685B68B3F5A02F0CD1724B1B68714A74
:101B7C0043F4802313606F4B1B686E4A43F480332D
:101B8C0013600BE06B4B1B686A4A23F480331360C1
:101B9C00684B1B68674A23F4802313607B685B687F
:101BAC00002B13D0FFF762FF386108E0FFF75EFFF0
:101BBC0002463B69D31A642B01D9032300E25D4B27
:101BCC001B6803F40033002BF0D014E0FFF74EFF3A
:101BDC00386108E0FFF74AFF02463B69D31A642BD1
:101BEC0001D90323ECE1534B1B6803F40033002BA6
:101BFC00F0D100E000BF7B681B6803F00203002BF0
:101C0C0063D04C4B5B6803F00C03002B0BD0494B9F
:101C1C005B6803F00C03082B1CD1464B5B6803F488
:101C2C008033002B16D1434B1B6803F00203002BAF
:101C3C0005D07B681B69012B01D00123C0E13D4B12
:101C4C001B6823F0F8027B685B69DB00394913439E
:101C5C000B603AE07B681B69002B20D0364B0122CD
:101C6C001A60FFF703FF386108E0FFF7FFFE02463A
:101C7C003B69D31A022B01D90323A1E12D4B1B681D
:101C8C0003F00203002BF0D02A4B1B6823F0F80260
:101C9C007B685B69DB00274913430B6015E0264B1F
:101CAC0000221A60FFF7E2FE386108E0FFF7DEFE63
:101CBC0002463B69D31A022B01D9032380E11D4B49
:101CCC001B6803F00203002BF0D17B681B6803F048
:101CDC000803002B3AD07B689B69002B19D0174B5B
:101CEC0001221A60FFF7C2FE386108E0FFF7BEFE62
:101CFC0002463B69D31A022B01D9032360E10D4B39
:101D0C005B6A03F00203002BF0D0012000F0CEFA46
:101D1C001CE00A4B00221A60FFF7A8FE38610FE0A6
:101D2C00FFF7A4FE02463B69D31A022B08D9032302
:101D3C0046E100BF001002400000424280044242D3
:101D4C00924B5B6A03F00203002BE9D17B681B68A2
:101D5C0003F00403002B00F0A6800023FB758B4BD3
:101D6C00DB6903F08053002B0DD1884BDB69874A6C
:101D7C0043F08053D361854BDB6903F08053BB6028
:101D8C00BB680123FB75824B1B6803F48073002B2B
:101D9C0018D17F4B1B687E4A43F480731360FFF7A6
:101DAC0065FE386108E0FFF761FE02463B69D31A15
:101DBC00642B01D9032303E1754B1B6803F4807377
:101DCC00002BF0D07B68DB68012B06D16F4B1B6AB4
:101DDC006E4A43F0010313622DE07B68DB68002B35
:101DEC000CD16A4B1B6A694A23F001031362674BDF
:101DFC001B6A664A23F0040313621CE07B68DB68F1
:101E0C00052B0CD1614B1B6A604A43F0040313622F
:101E1C005E4B1B6A5D4A43F0010313620BE05B4BA4
:101E2C001B6A5A4A23F001031362584B1B6A574A28
:101E3C0023F0040313627B68DB68002B15D0FFF7DB
:101E4C0015FE38610AE0FFF711FE02463B69D31A12
:101E5C0041F28832934201D90323B1E04B4B1B6A08
:101E6C0003F00203002BEED014E0FFF7FFFD386106
:101E7C000AE0FFF7FBFD02463B69D31A41F28832B8
:101E8C00934201D903239BE0404B1B6A03F00203EE
:101E9C00002BEED1FB7D012B05D13C4BDB693B4A82
:101EAC0023F08053D3617B68DB69002B00F08780C3
:101EBC00364B5B6803F00C03082B61D07B68DB6945
:101ECC00022B46D1334B00221A60FFF7CFFD38614D
:101EDC0008E0FFF7CBFD02463B69D31A022B01D970
:101EEC0003236DE0294B1B6803F00073002BF0D12A
:101EFC007B681B6AB3F5803F08D1244B5B6823F4E5
:101F0C0000327B689B68214913434B601F4B5B6815
:101F1C0023F474127B68196A7B685B6A0B431B4958
:101F2C0013434B601B4B01221A60FFF79FFD386176
:101F3C0008E0FFF79BFD02463B69D31A022B01D93F
:101F4C0003233DE0114B1B6803F00073002BF0D012
:101F5C0035E0104B00221A60FFF788FD386108E06D
:101F6C00FFF784FD02463B69D31A022B01D90323E8
:101F7C0026E0064B1B6803F00073002BF0D11EE02B
:101F8C007B68DB69012B07D1012319E000100240AB
:101F9C0000700040600042420B4B5B68FB60FB68CA
:101FAC0003F480327B681B6A9A4206D1FB6803F407
:101FBC0070127B685B6A9A4201D0012300E0002317
:101FCC0018461837BD4680BD0010024080B584B05D
:101FDC0000AF786039607B68002B01D10123D0E021
:101FEC006A4B1B6803F007033A689A4210D9674B97
:101FFC001B6823F0070265493B6813430B60634B76
:10200C001B6803F007033A689A4201D00123B8E039
:10201C007B681B6803F00203002B20D07B681B68D5
:10202C0003F00403002B05D0594B5B68584A43F46A
:10203C00E06353607B681B6803F00803002B05D03A
:10204C00534B5B68524A43F460535360504B5B688C
:10205C0023F0F0027B689B684D4913434B607B680F
:10206C001B6803F00103002B40D07B685B68012BDD
:10207C0007D1474B1B6803F40033002B15D1012308
:10208C007FE07B685B68022B07D1414B1B6803F038
:10209C000073002B09D1012373E03D4B1B6803F047
:1020AC000203002B01D101236BE0394B5B6823F059
:1020BC0003027B685B68364913434B60FFF7D6FC21
:1020CC00F8600AE0FFF7D2FC0246FB68D31A41F233
:1020DC008832934201D9032353E02D4B5B6803F004
:1020EC000C027B685B689B009A42EBD1274B1B6808
:1020FC0003F007033A689A4210D2244B1B6823F072
:10210C00070222493B6813430B60204B1B6803F00A
:10211C0007033A689A4201D0012332E07B681B68BE
:10212C0003F00403002B08D0194B5B6823F4E06226
:10213C007B68DB68164913434B607B681B6803F0B4
:10214C000803002B09D0124B5B6823F460527B68A8
:10215C001B69DB000E4913434B6000F021F802466B
:10216C000B4B5B681B0903F00F030A49CB5C22FA8B
:10217C0003F3094A1360094B1B681846FFF734FC3C
:10218C00002318461037BD4680BD00BF002002401A
:10219C00001002406C8000085C00002060000020F1
:1021AC0080B487B000AF0023FB600023BB6000232A
:1021BC007B6100237B6000233B611E4B5B68FB60F3
:1021CC00FB6803F00C03042B02D0082B03D027E090
:1021DC00194B3B6127E0FB689B0C03F00F03174A7C
:1021EC00D35C7B60FB6803F48033002B10D0114B65
:1021FC005B685B0C03F00103114AD35CBB607B682A
:10220C000D4A03FB02F2BB68B2FBF3F37B6104E003
:10221C007B680C4A02FB03F37B617B693B6102E048
:10222C00054B3B6100BF3B6918461C37BD4680BC63
:10223C00704700BF0010024000127A008480000832
:10224C009480000800093D0080B400AF024B1B686D
:10225C001846BD4680BC70475C00002080B500AFBE
:10226C00FFF7F2FF0246054B5B681B0A03F00703FE
:10227C000349CB5C22FA03F3184680BD00100240E0
:10228C007C80000880B500AFFFF7DEFF0246054BEF
:10229C005B68DB0A03F007030349CB5C22FA03F308
:1022AC00184680BD001002407C80000880B485B0C8
:1022BC0000AF78600A4B1B680A4AA2FB03235B0A37
:1022CC007A6802FB03F3FB6000BFFB685A1EFA60DE
:1022DC00002BF9D100BF00BF1437BD4680BC70473E
:1022EC005C000020D34D621080B586B000AF7860E2
:1022FC0000233B610023FB607B681B6803F0010338
:10230C00002B7DD00023FB754F4BDB6903F0805312
:10231C00002B0DD14C4BDB694B4A43F08053D361FE
:10232C00494BDB6903F08053BB60BB680123FB7531
:10233C00464B1B6803F48073002B18D1434B1B686E
:10234C00424A43F480731360FFF790FB386108E056
:10235C00FFF78CFB02463B69D31A642B01D903238C
:10236C006DE03A4B1B6803F48073002BF0D0364BB6
:10237C001B6A03F44073FB60FB68002B2ED07B6858
:10238C005B6803F44073FA689A4227D02E4B1B6AA1
:10239C0023F44073FB602E4B01221A602C4B00225D
:1023AC001A60294AFB681362FB6803F00103002BD7
:1023BC0014D0FFF75BFB38610AE0FFF757FB0246CE
:1023CC003B69D31A41F28832934201D9032336E098
:1023DC001D4B1B6A03F00203002BEED01A4B1B6A39
:1023EC0023F440727B685B68174913430B62FB7DD7
:1023FC00012B05D1144BDB69134A23F08053D361B5
:10240C007B681B6803F00203002B08D00E4B5B6843
:10241C0023F440427B689B680B4913434B607B68F9
:10242C001B6803F01003002B08D0074B5B6823F4E8
:10243C0080027B68DB68044913434B600023184619
:10244C001837BD4680BD00BF001002400070004030
:10245C004004424280B588B000AF786000237B61B5
:10246C000023FB6100233B610023FB600023BB6165
:10247C007B68102B0AD07B68102B00F28A807B685B
:10248C00012B45D07B68022B75D082E0464B5B68F4
:10249C00FB60454B1B6803F08073002B7BD0FB6803
:1024AC009B0C03F00F03414AD35C3B61FB6803F4C4
:1024BC008033002B15D03C4B5B685B0C03F00103A5
:1024CC003B4AD35C7B61FB6803F48033002B0DD05B
:1024DC00384A7B69B2FBF3F23B6902FB03F3FB6105
:1024EC0004E03B69344A02FB03F3FB612E4B5B684F
:1024FC0003F48003B3F5800F02D1FB69BB614AE0A2
:10250C00FB695B002D4AA2FB03235B08BB6142E025
:10251C00254B1B6AFB60FB6803F44073B3F5807FAB
:10252C0008D1FB6803F00203002B03D04FF40043E7
:10253C00BB611FE0FB6803F44073B3F5007F09D166
:10254C00194B5B6A03F00203002B03D049F640439E
:10255C00BB610FE0FB6803F44073B3F5407F1CD103
:10256C00114B1B6803F40033002B16D04FF224439D
:10257C00BB6112E011E0FFF785FE02460A4B5B6877
:10258C009B0B03F0030301335B00B2FBF3F3BB6162
:10259C0004E000BF02E000BF00E000BFBB691846CA
:1025AC002037BD4680BD00BF001002409880000857
:1025BC00A880000800127A0000093D00ABAAAAAA64
:1025CC0080B48BB000AF7860396000237B6200234D
:1025DC003B6269E101227B6A02FA03F3FB613B680F
:1025EC001B68FA691340BB61BA69FB699A4240F0F7
:1025FC0058813B685B689A4A93425ED0984A9342F2
:10260C0075D8984A934258D0964A93426FD8964AB6
:10261C00934252D0944A934269D8944A93424CD0F4
:10262C00924A934263D8924A934246D0904A93423C
:10263C005DD8122B2AD8122B59D801A252F823F0AC
:10264C00C7260008A1260008B3260008F5260008B6
:10265C00FB260008FB260008FB260008FB260008CA
:10266C00FB260008FB260008FB260008FB260008BA
:10267C00FB260008FB260008FB260008FB260008AA
:10268C00FB260008A9260008BD260008794A9342BB
:10269C0013D02CE03B68DB683B6229E03B68DB68CD
:1026AC0004333B6224E03B68DB6808333B621FE089
:1026BC003B68DB680C333B621AE03B689B68002B81
:1026CC0002D104233B6213E03B689B68012B05D1CC
:1026DC0008233B627B68FA691A6109E008233B62B4
:1026EC007B68FA695A6103E000233B6200E000BF9B
:1026FC00BB69FF2B01D87B6801E07B6804337B61ED
:10270C00BB69FF2B02D87B6A9B0002E07B6A083B0B
:10271C009B003B617B691A680F213B6901FA03F34B
:10272C00DB431A40396A3B6901FA03F31A437B69AC
:10273C001A603B685B6803F08053002B00F0B1809B
:10274C004D4B9B694C4A43F0010393614A4B9B6987
:10275C0003F00103BB60BB68484A7B6A9B080233E9
:10276C0052F82330FB607B6A03F003039B000F22BB
:10277C0002FA03F3DB43FA681340FB607B68404AC0
:10278C00934213D07B683F4A93420DD07B683E4AFC
:10279C00934207D07B683D4A934201D1032306E064
:1027AC00042304E0022302E0012300E000237A6A00
:1027BC0002F0030292009340FA681343FB602F4926
:1027CC007B6A9B080233FA6841F823203B685B68FC
:1027DC0003F48013002B06D02D4B9A682C49BB694F
:1027EC0013438B6006E02A4B9A68BB69DB4328498C
:1027FC0013408B603B685B6803F40013002B06D01E
:10280C00234BDA682249BB691343CB6006E0204BAB
:10281C00DA68BB69DB431E491340CB603B685B68DD
:10282C0003F40033002B06D0194B5A681849BB69C6
:10283C0013434B6006E0164B5A68BB69DB431449E3
:10284C0013404B603B685B6803F48033002B21D052
:10285C000F4B1A680E49BB6913430B6021E000BF94
:10286C000000321000003110000022100000211076
:10287C000000121000001110001002400000014076
:10288C0000080140000C0140001001400014014000
:10289C00000401400B4B1A68BB69DB430949134028
:1028AC000B607B6A01337B623B681A687B6A22FA95
:1028BC0003F3002B7FF48EAE00BF00BF2C37BD4658
:1028CC0080BC70470004014080B485B000AF7860D4
:1028DC000B467B807B689A687B881340002B02D068
:1028EC000123FB7301E00023FB73FB7B18461437B9
:1028FC00BD4680BC704780B483B000AF78600B4697
:10290C007B8013467B707B78002B03D07A887B68A6
:10291C001A6103E07B881A047B681A6100BF0C37CC
:10292C00BD4680BC7047000080B485B000AF7860B5
:10293C007B6803F00703FB600C4BDB68BB60BA6879
:10294C004FF6FF031340BB60FB681A02BB681343CE
:10295C0043F0BF6343F40033BB60044ABB68D360ED
:10296C0000BF1437BD4680BC704700BF00ED00E0CF
:10297C0080B400AF044BDB681B0A03F00703184656
:10298C00BD4680BC704700BF00ED00E080B483B052
:10299C0000AF03463960FB7197F90730002B0ADB57
:1029AC003B68DAB20C4997F907301201D2B20B44EA
:1029BC0083F800230AE03B68DAB20849FB7903F09C
:1029CC000F03043B1201D2B20B441A7600BF0C3732
:1029DC00BD4680BC704700BF00E100E000ED00E0A8
:1029EC0080B489B000AFF860B9607A60FB6803F01E
:1029FC000703FB61FB69C3F10703042B28BF042306
:102A0C00BB61FB690433062B02D9FB69033B00E075
:102A1C0000237B614FF0FF32BB6902FA03F3DA4308
:102A2C00BB681A407B699A404FF0FF317B6901FA11
:102A3C0003F3D9437B680B40134318462437BD4638
:102A4C0080BC704780B582B000AF78607B68013B7A
:102A5C00B3F1807F01D301230FE00A4A7B68013B6D
:102A6C0053600F214FF0FF30FFF790FF054B002212
:102A7C009A60044B07221A60002318460837BD469B
:102A8C0080BD00BF10E000E080B582B000AF786080
:102A9C007868FFF749FF00BF0837BD4680BD80B599
:102AAC0086B000AF0346B9607A60FB7300237B618C
:102ABC00FFF75EFF78617A68B9687869FFF790FF75
:102ACC00024697F90F3011461846FFF75FFF00BF1B
:102ADC001837BD4680BD80B582B000AF786078688D
:102AEC00FFF7B0FF034618460837BD4680BD00000F
:102AFC0080B584B000AF78607B68002B01D10123D6
:102B0C002BE17B6893F83D30DBB2002B06D17B6860
:102B1C00002283F83C20786801F07AFD7B6824223F
:102B2C0083F83D207B681B681A687B681B6822F061
:102B3C0001021A607B681B681A687B681B6842F488
:102B4C0000421A607B681B681A687B681B6822F459
:102B5C0000421A60FFF782FBF8607B685B68814A71
:102B6C00934207D8FB68804A934294BF0123002309
:102B7C00DBB206E0FB687D4A934294BF012300233D
:102B8C00DBB2002B01D00123E7E0FB68784AA2FB03
:102B9C0003239B0CBB607B681B685B6823F03F01C5
:102BAC007B681B68BA680A435A607B681B681B6A9F
:102BBC0023F03F017B685B686A4A934202D8BB688A
:102BCC00013309E0BB684FF4967202FB03F3694AC8
:102BDC00A2FB03239B0901337A6812680B4313622F
:102BEC007B681B68DB6923F44F4222F0FF027B6891
:102BFC005B685C498B4219D8FB68591E7B685B6823
:102C0C005B00B1FBF3F3591C40F6FC730B40002B3B
:102C1C000AD0FB68591E7B685B685B00B1FBF3F361
:102C2C000133C3F30B0351E004234FE07B689B6833
:102C3C00002B11D1FB68581E7B6859680B465B0052
:102C4C000B44B0FBF3F30133C3F30B03002B0CBFAA
:102C5C0001230023DBB212E0FB68581E7B68596825
:102C6C000B469B000B4499000B44B0FBF3F3013370
:102C7C00C3F30B03002B0CBF01230023DBB2002B8F
:102C8C0001D0012322E07B689B68002B0ED1FB68EE
:102C9C00581E7B6859680B465B000B44B0FBF3F382
:102CAC000133C3F30B0343F400430FE0FB68581EDE
:102CBC007B6859680B469B000B4499000B44B0FB96
:102CCC00F3F30133C3F30B0343F44043796809680E
:102CDC001343CB617B681B681B6823F0C0017B68C6
:102CEC00DA697B681B6A1A437B681B680A431A60A3
:102CFC007B681B689B6823F4034323F0FF037A680B
:102D0C0011697A68D26811437A6812680B43936030
:102D1C007B681B68DB6823F0FF017B685A697B6862
:102D2C009B691A437B681B680A43DA607B681B68E3
:102D3C001A687B681B6842F001021A607B680022EB
:102D4C001A647B68202283F83D207B6800221A637A
:102D5C007B68002283F83E20002318461037BD46BE
:102D6C0080BD00BFA08601007F841E00FF083D00CF
:102D7C0083DE1B43D34D621080B588B002AFF86080
:102D8C007A601A460B467B8113463B81FEF76EFE3A
:102D9C007861FB6893F83D30DBB2202B40F0E0808B
:102DAC007B690093192301227049F86800F0CCFD6F
:102DBC000346002B01D00223D3E0FB6893F83C3090
:102DCC00012B01D10223CCE0FB68012283F83C20CB
:102DDC00FB681B681B6803F00103012B07D0FB6821
:102DEC001B681A68FB681B6842F001021A60FB68DA
:102DFC001B681A68FB681B6822F400621A60FB6887
:102E0C00212283F83D20FB68102283F83E20FB68CA
:102E1C0000221A64FB687A685A62FB683A895A8500
:102E2C00FB685B8D9AB2FB681A85FB68504ADA62C4
:102E3C0079897B693A6AF86800F036FC0346002B06
:102E4C0001D001238DE000233B61FB681B685B69AB
:102E5C003B61FB681B689B693B613B6966E07A6977
:102E6C00396AF86800F08AFE0346002B0DD0FB6827
:102E7C001B6C042B07D1FB681B681A68FB681B686A
:102E8C0042F400721A6001236BE0FB685B6A1A78EB
:102E9C00FB681B681A61FB685B6A5A1CFB685A6208
:102EAC00FB685B8D9BB2013B9AB2FB685A85FB6851
:102EBC001B8D013B9AB2FB681A85FB681B685B692A
:102ECC0003F00403042B1BD1FB681B8D002B17D0C4
:102EDC00FB685B6A1A78FB681B681A61FB685B6AA3
:102EEC005A1CFB685A62FB685B8D9BB2013B9AB221
:102EFC00FB685A85FB681B8D013B9AB2FB681A85EF
:102F0C007A69396AF86800F081FE0346002B0DD00F
:102F1C00FB681B6C042B07D1FB681B681A68FB68E9
:102F2C001B6842F400721A6001231AE0FB681B8DC7
:102F3C00002B94D1FB681B681A68FB681B6842F471
:102F4C0000721A60FB68202283F83D20FB68002287
:102F5C0083F83E20FB68002283F83C20002300E02D
:102F6C00022318461837BD4680BD00BF0200100072
:102F7C000000FFFF80B58CB002AFF8607A601A4693
:102F8C000B467B8113463B8100233B62FEF76EFDB3
:102F9C007862FB6893F83D30DBB2202B40F04B821B
:102FAC007B6A0093192301227F49F86800F0CCFC5E
:102FBC000346002B01D002233EE2FB6893F83C3021
:102FCC00012B01D1022337E2FB68012283F83C205C
:102FDC00FB681B681B6803F00103012B07D0FB681F
:102FEC001B681A68FB681B6842F001021A60FB68D8
:102FFC001B681A68FB681B6822F400621A60FB6885
:10300C00222283F83D20FB68102283F83E20FB68C7
:10301C0000221A64FB687A685A62FB683A895A85FE
:10302C00FB685B8D9AB2FB681A85FB685F4ADA62B3
:10303C0079897B6A3A6BF86800F0B8FB0346002B81
:10304C0001D00123F8E1FB681B8D002B13D1002369
:10305C00FB61FB681B685B69FB61FB681B689B6918
:10306C00FB61FB69FB681B681A68FB681B6842F410
:10307C0000721A60CCE1FB681B8D012B1ED1FB6822
:10308C001B681A68FB681B6822F480621A6072B6AF
:10309C0000BF0023BB61FB681B685B69BB61FB68FD
:1030AC001B689B69BB61BB69FB681B681A68FB6882
:1030BC001B6842F400721A6062B635E0FB681B8D27
:1030CC00022B1ED1FB681B681A68FB681B6842F454
:1030DC0000621A6072B600BF00237B61FB681B683C
:1030EC005B697B61FB681B689B697B617B69FB6827
:1030FC001B681A68FB681B6822F480621A6062B64F
:10310C0012E0FB681B681A68FB681B6842F480625B
:10311C001A6000233B61FB681B685B693B61FB68C1
:10312C001B689B693B613B6972E1FB681B8D032B40
:10313C0000F21F81FB681B8D012B23D17A6A396B3E
:10314C00F86800F0ABFD0346002B01D0012373E1BE
:10315C00FB681B681A69FB685B6AD2B21A70FB6861
:10316C005B6A5A1CFB685A62FB681B8D013B9AB266
:10317C00FB681A85FB685B8D9BB2013B9AB2FB68BE
:10318C005A8545E1FB681B8D022B52D17B6A00935B
:10319C003B6B00220649F86800F0D6FB0346002B77
:1031AC0008D0012348E100BF020010000000FFFF1F
:1031BC000400010072B600BFFB681B681A68FB684C
:1031CC001B6842F400721A60FB681B681A69FB6882
:1031DC005B6AD2B21A70FB685B6A5A1CFB685A6253
:1031EC00FB681B8D013B9AB2FB681A85FB685B8DF3
:1031FC009BB2013B9AB2FB685A8562B600BFFB6872
:10320C001B681A69FB685B6AD2B21A70FB685B6A4E
:10321C005A1CFB685A62FB681B8D013B9AB2FB6817
:10322C001A85FB685B8D9BB2013B9AB2FB685A8591
:10323C00EEE07B6A00933B6B00228149F86800F05A
:10324C0083FB0346002B01D00123F5E0FB681B68D0
:10325C001A68FB681B6822F480621A6072B600BFA1
:10326C00FB681B681A69FB685B6AD2B21A70FB6850
:10327C005B6A5A1CFB685A62FB681B8D013B9AB255
:10328C00FB681A85FB685B8D9BB2013B9AB2FB68AD
:10329C005A856C4B1B68DB086B4AA2FB03231A0A8A
:1032AC0013469B001344DA00D31A3B623B6A013B82
:1032BC003B623B6A002B18D1FB6800221A63FB6847
:1032CC00202283F83D20FB68002283F83E20FB6817
:1032DC001B6C43F02002FB681A6462B600BFFB68EB
:1032EC00002283F83C200123A6E0FB681B685B6985
:1032FC0003F00403042BD9D1FB681B681A68FB6824
:10330C001B6842F400721A60FB681B681A69FB6840
:10331C005B6AD2B21A70FB685B6A5A1CFB685A6211
:10332C00FB681B8D013B9AB2FB681A85FB685B8DB1
:10333C009BB2013B9AB2FB685A8562B600BFFB6830
:10334C001B681A69FB685B6AD2B21A70FB685B6A0D
:10335C005A1CFB685A62FB681B8D013B9AB2FB68D6
:10336C001A85FB685B8D9BB2013B9AB2FB685A8550
:10337C004EE07A6A396BF86800F090FC0346002B3B
:10338C0001D0012358E0FB681B681A69FB685B6A73
:10339C00D2B21A70FB685B6A5A1CFB685A62FB68F3
:1033AC001B8D013B9AB2FB681A85FB685B8D9BB247
:1033BC00013B9AB2FB685A85FB681B685B6903F09A
:1033CC000403042B24D1FB681B8D032B07D1FB6852
:1033DC001B681A68FB681B6822F480621A60FB6821
:1033EC001B681A69FB685B6AD2B21A70FB685B6A6D
:1033FC005A1CFB685A62FB681B8D013B9AB2FB6836
:10340C001A85FB685B8D9BB2013B9AB2FB685A85AF
:10341C00FB681B8D002B7FF488AEFB68202283F8A1
:10342C003D20FB68002283F83E20FB68002283F8D5
:10343C003C20002300E0022318462837BD4680BDFF
:10344C00040001005C00002089B5F81480B58AB036
:10345C0002AFF8607A603B600B467B81FEF706FB9F
:10346C00F8610023BB61FB6893F83D30DBB2202B85
:10347C0040F01181FB690093192301228849F868F7
:10348C0000F062FA0346002B01D0022304E1FB6832
:10349C0093F83C30012B01D10223FDE0FB680122A3
:1034AC0083F83C20FB681B681B6803F00103012BAD
:1034BC0007D0FB681B681A68FB681B6842F00102A6
:1034CC001A60FB681B681A68FB681B6822F40062B0
:1034DC001A60FB68242283F83D20FB6800221A64E2
:1034EC00FB68704ADA62FB681B681A68FB681B6829
:1034FC0042F480721A60FB6900933B6800224FF023
:10350C000111F86800F020FA0346002B0DD0FB687F
:10351C001B681B6803F48073B3F5807F03D1FB68D1
:10352C004FF400721A640323B6E07B89DBB21A46AF
:10353C00FB681B6802F0FE021A61FEF797FAF8614D
:10354C00FB681B685B6903F00203022B0CBF0123B1
:10355C000023DBB2FB75FB681B685B6903F48063BB
:10356C00B3F5806F0CBF01230023DBB2BB7525E0E4
:10357C00FEF77CFA0246FB69D31A3A689A4202D3E8
:10358C003B68002B03D1FB68A02283F83D20FB682D
:10359C001B685B6903F00203022B0CBF01230023A1
:1035AC00DBB2FB75FB681B685B6903F48063B3F5E6
:1035BC00806F0CBF01230023DBB2BB75FB6893F853
:1035CC003D30DBB2A02B05D0FB7D002B02D1BB7DA7
:1035DC00002BCDD0FB68202283F83D20FB681B68B4
:1035EC005B6903F00203022B29D1FB681B681A6884
:1035FC00FB681B6842F400721A6000233B61FB6895
:10360C001B685B693B61FB681B689B693B613B69A1
:10361C00FB690093192301222149F86800F094F901
:10362C000346002B01D0012336E0FB68202283F8EF
:10363C003D20FB68002283F83C2000232CE0FB6833
:10364C001B681A68FB681B6842F400721A60FB68FE
:10365C001B686FF480625A61FB6900931923012285
:10366C000F49F86800F070F90346002B01D00123D4
:10367C0012E0BB690133BB61BA697B689A42FFF403
:10368C0032AFFB68202283F83D20FB68002283F8D0
:10369C003C20012300E0022318462037BD4680BDA4
:1036AC00020010000000FFFF80B588B002AFF86088
:1036BC007A603B600B467B81FB68DB6A7B617B69D4
:1036CC00082B06D07B69012B03D07B6913F5803F57
:1036DC0008D1FB681B681A68FB681B6842F480728F
:1036EC001A600BE0FB681B6B122B07D1FB681B6885
:1036FC001A68FB681B6842F480721A603B6800937E
:10370C007B6800224FF00111F86800F01DF90346A8
:10371C00002B0DD0FB681B681B6803F48073B3F59A
:10372C00807F03D1FB684FF400721A64032335E0E9
:10373C00FB681B69B3F5804F08D17B89DBB21A4655
:10374C00FB681B6802F0FE021A611BE07B89DB112F
:10375C00DBB203F00603DBB263F00F03DAB2FB68F3
:10376C001B681A613B687A680E49F86800F066F9C4
:10377C000346002B01D0012310E07B89DAB2FB68F1
:10378C001B681A613B687A680749F86800F056F9BB
:10379C000346002B01D0012300E000231846183704
:1037AC00BD4680BD080001000200010080B588B054
:1037BC0002AFF8607A603B600B467B81FB68DB6A8A
:1037CC007B61FB681B681A68FB681B6842F48062AB
:1037DC001A607B69082B06D07B69012B03D07B69AF
:1037EC0013F5803F08D1FB681B681A68FB681B68DF
:1037FC0042F480721A600BE0FB681B6B112B07D133
:10380C00FB681B681A68FB681B6842F480721A60BC
:10381C003B6800937B6800224FF00111F86800F0C0
:10382C0093F80346002B0DD0FB681B681B6803F450
:10383C008073B3F5807F03D1FB684FF400721A6478
:10384C00032379E0FB681B69B3F5804F08D17B89B2
:10385C00DBB243F00103DAB2FB681B681A615FE06C
:10386C007B89DB11DBB203F00603DBB263F00F03E1
:10387C00DAB2FB681B681A613B687A683049F868F1
:10388C0000F0DCF80346002B01D0012354E07B89C7
:10389C00DAB2FB681B681A613B687A682949F868D8
:1038AC0000F0CCF80346002B01D0012344E00023A8
:1038BC003B61FB681B685B693B61FB681B689B6930
:1038CC003B613B69FB681B681A68FB681B6842F428
:1038DC0080721A603B6800937B6800224FF00111E4
:1038EC00F86800F031F80346002B0DD0FB681B681C
:1038FC001B6803F48073B3F5807F03D1FB684FF42E
:10390C0000721A64032317E07B89DB11DBB203F02E
:10391C000603DBB263F00E03DAB2FB681B681A61B4
:10392C003B687A680749F86800F088F80346002B72
:10393C0001D0012300E0002318461837BD4680BD96
:10394C00080001000200010080B584B000AFF860EF
:10395C00B9603B601346FB7148E03B68B3F1FF3F35
:10396C0044D0FEF783F80246BB69D31A3A689A42F0
:10397C0002D33B68002B39D1BB681B0CDBB2012B8B
:10398C000DD1FB681B685B69DA43BB6813409BB2C3
:10399C00002B0CBF01230023DBB21A460CE0FB68A2
:1039AC001B689B69DA43BB6813409BB2002B0CBFAE
:1039BC0001230023DBB21A46FB799A4216D1FB682D
:1039CC0000221A63FB68202283F83D20FB6800224A
:1039DC0083F83E20FB681B6C43F02002FB681A64E2
:1039EC00FB68002283F83C20012323E0BB681B0CFE
:1039FC00DBB2012B0DD1FB681B685B69DA43BB683A
:103A0C0013409BB2002B0CBF01230023DBB21A46E0
:103A1C000CE0FB681B689B69DA43BB6813409BB2E4
:103A2C00002B0CBF01230023DBB21A46FB799A4210
:103A3C0093D0002318461037BD4680BD80B584B0A6
:103A4C0000AFF860B9607A603B6071E0FB681B689E
:103A5C005B6903F48063B3F5806F23D1FB681B684B
:103A6C001A68FB681B6842F400721A60FB681B68DA
:103A7C006FF480625A61FB6800221A63FB68202293
:103A8C0083F83D20FB68002283F83E20FB681B6C0A
:103A9C0043F00402FB681A64FB68002283F83C20A4
:103AAC00012367E07B68B3F1FF3F41D0FDF7DEFFF8
:103ABC0002463B68D31A7A689A4202D37B68002B81
:103ACC0036D1BB681B0CDBB2012B0CD1FB681B681D
:103ADC005B69DA43BB6813409BB2002B14BF012314
:103AEC000023DBB20BE0FB681B689B69DA43BB6805
:103AFC0013409BB2002B14BF01230023DBB2002B1D
:103B0C0016D0FB6800221A63FB68202283F83D2044
:103B1C00FB68002283F83E20FB681B6C43F02002FC
:103B2C00FB681A64FB68002283F83C20012321E027
:103B3C00BB681B0CDBB2012B0CD1FB681B685B69EF
:103B4C00DA43BB6813409BB2002B14BF0123002344
:103B5C00DBB20BE0FB681B689B69DA43BB68134064
:103B6C009BB2002B14BF01230023DBB2002B7FF48C
:103B7C006DAF002318461037BD4680BD80B584B0AC
:103B8C0000AFF860B9607A6034E0F86800F0E3F8F0
:103B9C000346002B01D0012334E0BB68B3F1FF3F97
:103BAC0028D0FDF763FF02467B68D31ABA689A42A5
:103BBC0002D3BB68002B1DD1FB681B685B6903F04B
:103BCC008003802B16D0FB6800221A63FB6820222E
:103BDC0083F83D20FB68002283F83E20FB681B6CB9
:103BEC0043F02002FB681A64FB68002283F83C2037
:103BFC00012307E0FB681B685B6903F08003802BE3
:103C0C00C3D1002318461037BD4680BD80B584B0A3
:103C1C0000AFF860B9607A6034E0F86800F09BF8A7
:103C2C000346002B01D0012334E0BB68B3F1FF3F06
:103C3C0028D0FDF71BFF02467B68D31ABA689A425C
:103C4C0002D3BB68002B1DD1FB681B685B6903F0BA
:103C5C000403042B16D0FB6800221A63FB68202295
:103C6C0083F83D20FB68002283F83E20FB681B6C28
:103C7C0043F02002FB681A64FB68002283F83C20A6
:103C8C00012307E0FB681B685B6903F00403042B4A
:103C9C00C3D1002318461037BD4680BD80B584B013
:103CAC0000AFF860B9607A6049E0FB681B685B693B
:103CBC0003F01003102B19D1FB681B686FF0100276
:103CCC005A61FB6800221A63FB68202283F83D20AE
:103CDC00FB68002283F83E20FB681A6CFB681A64B0
:103CEC00FB68002283F83C20012330E0FDF7BEFE88
:103CFC0002467B68D31ABA689A4202D3BB68002B7F
:103D0C001DD1FB681B685B6903F04003402B16D088
:103D1C00FB6800221A63FB68202283F83D20FB68B5
:103D2C00002283F83E20FB681B6C43F02002FB68EA
:103D3C001A64FB68002283F83C20012307E0FB682F
:103D4C001B685B6903F04003402BAED1002318467F
:103D5C001037BD4680BD80B483B000AF78607B68FF
:103D6C001B685B6903F48063B3F5806F1BD17B68C0
:103D7C001B686FF480625A617B6800221A637B684F
:103D8C00202283F83D207B68002283F83E207B684C
:103D9C001B6C43F004027B681A647B68002283F876
:103DAC003C20012300E0002318460C37BD4680BCA4
:103DBC00704780B582B000AF78607B68002B01D172
:103DCC00012342E07B6893F84130DBB2002B06D133
:103DDC007B68002283F84020786800F059FC7B68EF
:103DEC00242283F841207B681B68DA687B681B6897
:103DFC0022F40052DA60786800F072F97B681B6874
:103E0C001A697B681B6822F490421A617B681B68F4
:103E1C005A697B681B6822F02A025A617B681B680E
:103E2C00DA687B681B6842F40052DA607B68002217
:103E3C005A647B68202283F841207B68202283F817
:103E4C0042207B6800225A63002318460837BD467F
:103E5C0080BD80B58AB002AFF860B9603B60134694
:103E6C00FB8000237B61FB6893F84130DBB2202B95
:103E7C0075D1BB68002B02D0FB88002B01D101232C
:103E8C006EE0FB6800225A64FB68212283F8412013
:103E9C00FDF7ECFD7861FB68FA889A84FB68FA8878
:103EAC00DA84FB689B68B3F5805F08D1FB681B69FB
:103EBC00002B04D10023FB61BB68BB6103E0BB6832
:103ECC00FB610023BB612EE03B6800937B69002201
:103EDC008021F86800F048F80346002B05D0FB68F9
:103EEC00202283F8412003233AE0FB69002B0BD1FD
:103EFC00BB691B881A46FB681B68C2F308025A6030
:103F0C00BB690233BB6107E0FB691A78FB681B686D
:103F1C005A60FB690133FB61FB68DB8C9BB2013B94
:103F2C009AB2FB68DA84FB68DB8C9BB2002BCBD19A
:103F3C003B6800937B6900224021F86800F014F87C
:103F4C000346002B05D0FB68202283F84120032375
:103F5C0006E0FB68202283F84120002300E00223C6
:103F6C0018462037BD4680BD80B586B000AFF860DE
:103F7C00B9603B601346FB713BE03B6AB3F1FF3F1A
:103F8C0037D0FDF773FD02463B68D31A3A6A9A4262
:103F9C0002D33B6A002B01D103233AE0FB681B6878
:103FAC00DB6803F00403002B23D0BB68802B20D0EC
:103FBC00BB68402B1DD0FB681B681B6803F0080313
:103FCC00082B16D100237B61FB681B681B687B6187
:103FDC00FB681B685B687B617B69F86800F01DF807
:103FEC00FB6808225A64FB68002283F840200123F6
:103FFC000FE0FB681B681A68BB681340BA689A42EA
:10400C000CBF01230023DBB21A46FB799A42B4D0D1
:10401C00002318461837BD4680BD80B495B000AF5C
:10402C0078607B681B680C337B637B6B53E8003FC9
:10403C003B633B6B23F49073FB647B681B680C3312
:10404C00FA6C3A64FB63F96B3A6C41E80023BB638E
:10405C00BB6B002BE5D17B681B6814333B623B6A5E
:10406C0053E8003FFB61FB6923F00103BB647B68F1
:10407C001B681433BA6CFA62BB62B96AFA6A41E81B
:10408C0000237B627B6A002BE5D17B681B6B012BC9
:10409C0019D17B681B680C33FB60FB6853E8003F4D
:1040AC00BB60BB6823F010037B647B681B680C331C
:1040BC007A6CBA617B617969BA6941E800233B612A
:1040CC003B69002BE5D17B68202283F842207B687A
:1040DC0000221A6300BF5437BD4680BC70470000F5
:1040EC0080B584B000AF78607B681B681B6923F4D3
:1040FC0040517B68DA687B681B680A431A617B68ED
:10410C009A687B681B691A437B685B691343BB60C5
:10411C007B681B68DB6823F4B05323F00C037A68CC
:10412C001268B9680B43D3607B681B685B6923F426
:10413C0040717B689A697B681B680A435A617B688B
:10414C001B682C4A934203D1FEF79CF8F86002E0FE
:10415C00FEF784F8F860FA6813469B0013449A0043
:10416C001A447B685B689B00B2FBF3F3224AA2FB08
:10417C0003235B091901FA6813469B0013449A0048
:10418C001A447B685B689B00B2FBF3F21A4BA3FBEF
:10419C0002035B09642000FB03F3D31A1B013233C7
:1041AC00154AA2FB03235B0903F0F0031944FA68D8
:1041BC0013469B0013449A001A447B685B689B006F
:1041CC00B2FBF3F20C4BA3FB02035B09642000FB74
:1041DC0003F3D31A1B013233074AA2FB03235B09F7
:1041EC0003F00F027B681B680A449A6000BF10370B
:1041FC00BD4680BD003801401F85EB5180B500AF36
:10420C00FDF7DCFB00F01AF800F00AF900F072F888
:10421C0000F0AEF800F0DAF8054A0649064801F05D
:10422C00E7FD01F06FFE0A20FDF72AFC00BFF8E75E
:10423C006C02002018020020E801002080B594B028
:10424C0000AF07F12803282200211846FCF736FDA1
:10425C0007F1140300221A605A609A60DA601A613E
:10426C003B1D00221A605A609A60DA600123BB621F
:10427C004FF48033FB6200233B630123BB630223B7
:10428C007B644FF48033BB644FF4E013FB6407F1A1
:10429C0028031846FDF718FC0346002B01D000F04C
:1042AC0017F90F237B610223BB610023FB614FF4E1
:1042BC0080633B6200237B6207F1140302211846E2
:1042CC00FDF784FE0346002B01D000F001F9022318
:1042DC007B604FF40043FB603B1D1846FEF704F86F
:1042EC000346002B01D000F0F3F800BF5037BD4659
:1042FC0080BD000080B584B000AF3B1D00221A6069
:10430C005A609A60184B194A1A60174B00229A602F
:10431C00154B00221A73144B00221A75124B4FF4D2
:10432C006022DA61104B00225A600F4B01221A6195
:10433C000D48FCF7EBFE0346002B01D000F0C8F84B
:10434C0000237B600123BB600023FB603B1D1946EF
:10435C000548FDF79FF90346002B01D000F0B8F893
:10436C0000BF1037BD4680BDE8010020002401408D
:10437C0080B500AF124B134A1A60114B124A5A60A7
:10438C000F4B00229A600E4B0022DA600C4B4FF45C
:10439C0080421A610A4B00225A61094B00229A6131
:1043AC00074B0022DA61064B00221A620448FEF722
:1043BC009FFB0346002B01D000F08AF800BF80BDA4
:1043CC001802002000580040A086010080B500AF04
:1043DC00114B124A1A60104B4FF4E1325A600E4BDB
:1043EC0000229A600C4B0022DA600B4B00221A61FF
:1043FC00094B0C225A61084B00229A61064B002291
:10440C00DA610548FFF7D5FC0346002B01D000F01C
:10441C005FF800BF80BD00BF6C0200200038014077
:10442C0080B588B000AF07F1100300221A605A6003
:10443C009A60DA60244B9B69234A43F02003936112
:10444C00214B9B6903F02003FB60FB681E4B9B69AF
:10445C001D4A43F0040393611B4B9B6903F0040357
:10446C00BB60BB68184B9B69174A43F00803936108
:10447C00154B9B6903F008037B607B6800224FF4AB
:10448C0000611248FEF737FA7E233B6100237B6103
:10449C000123BB6107F1100319460C48FEF790F895
:1044AC004FF400633B6101237B610023BB6102235A
:1044BC00FB6107F1100319460448FEF781F800BFB1
:1044CC002037BD4680BD00BF0010024000080140EF
:1044DC0080B400AF72B600BF00BFFDE780B400AF80
:1044EC0000BFFDE780B400AF00BFFDE780B400AFB4
:1044FC0000BFFDE780B400AF00BFFDE780B400AFA4
:10450C0000BFFDE780B400AF00BFBD4680BC704764
:10451C0080B400AF00BFBD4680BC704780B400AF14
:10452C0000BFBD4680BC704780B500AFFDF78CFA6C
:10453C0000BF80BD80B485B000AF154B9B69144A99
:10454C0043F001039361124B9B6903F00103BB60C1
:10455C00BB680F4BDB690E4A43F08053D3610C4BA5
:10456C00DB6903F080537B607B680A4B5B68FB6004
:10457C00FB6823F0E063FB60FB6843F08063FB6047
:10458C00044AFB68536000BF1437BD4680BC7047BB
:10459C00001002400000014080B588B000AF786088
:1045AC0007F1100300221A605A609A60DA607B6887
:1045BC001B68144A934221D1134B9B69124A43F452
:1045CC0000739361104B9B6903F40073FB60FB68F1
:1045DC000D4B9B690C4A43F0040393610A4B9B6996
:1045EC0003F00403BB60BB6801233B6103237B61C5
:1045FC0007F1100319460548FDF7E2FF00BF20370D
:10460C00BD4680BD0024014000100240000801405E
:10461C0080B588B000AF786007F1100300221A60F3
:10462C005A609A60DA607B681B68164A934224D100
:10463C00154B9B69144A43F008039361124B9B6919
:10464C0003F00803FB60FB684FF440633B611223EB
:10465C007B610323FB6107F1100319460B48FDF73F
:10466C00AFFF094BDB69084A43F48003D361064B67
:10467C00DB6903F48003BB60BB6800BF2037BD4619
:10468C0080BD00BF0058004000100240000C0140EB
:10469C0080B588B000AF786007F1100300221A6073
:1046AC005A609A60DA607B681B681C4A934231D16D
:1046BC001B4B9B691A4A43F480439361184B9B69CB
:1046CC0003F48043FB60FB68154B9B69144A43F071
:1046DC0004039361124B9B6903F00403BB60BB683A
:1046EC004FF400733B6102237B610323FB6107F1F1
:1046FC00100319460B48FDF763FF4FF480633B61D1
:10470C0000237B610023BB6107F1100319460548A8
:10471C00FDF756FF00BF2037BD4680BD0038014075
:10472C00001002400008014080B586B000AF7860F0
:10473C00144A154BD31A7B617B693B61134B1B6885
:10474C00002B02D1114B124A1A60104B1A687B686D
:10475C0013443A699A4207D202F028FA03460C2213
:10476C001A604FF0FF3309E0084B1B68FB60074BE6
:10477C001A687B681344054A1360FB68184618379F
:10478C00BD4680BD0050002000040000B402002093
:10479C00A803002080B586B000AFF860B9607A60DD
:1047AC0000237B610AE0AFF300800146BB685A1C12
:1047BC00BA60CAB21A707B6901337B617A697B6813
:1047CC009A42F0DB7B6818461837BD4680BD80B432
:1047DC0083B000AF78604FF0FF3318460C37BD46FE
:1047EC0080BC704780B483B000AF786039603B68A0
:1047FC004FF400525A60002318460C37BD4680BC5B
:10480C00704780B483B000AF7860012318460C3732
:10481C00BD4680BC704780B485B000AFF860B9600D
:10482C007A60002318461437BD4680BC70470000E0
:10483C00FCF766FC0B480C490C4A002302E0D458E8
:10484C00C4500433C4188C42F9D3094A094C0023D0
:10485C0001E013600432A242FBD3FCF77DFAFFF7B0
:10486C00CDFC7047000000207C000020F480000884
:10487C007C000020A8030020FEE7000080B483B079
:10488C0000AF00237B6033E01E497A6813465B005F
:10489C0013449B000B4400221A701A497A68134681
:1048AC005B0013449B000B44013300221A70154922
:1048BC007A6813465B0013449B000B4402330022BE
:1048CC001A7010497A6813465B0013449B000B4422
:1048DC00043300221A600B497A6813465B001344B8
:1048EC009B000B44083300221A707B6801337B60F9
:1048FC007B68052BC8DD00BF00BF0C37BD4680BCF4
:10490C00704700BFB802002080B584B000AF0346EA
:10491C00FB71FB79052B01D900230FE0FB79094AC8
:10492C0032F8133019460848FDF7CEFF0346FB73E7
:10493C00FB7B002B0CBF01230023DBB21846103786
:10494C00BD4680BDAC8000080008014080B584B035
:10495C0000AF0346FB71FB79052B01D9002353E013
:10496C00FDF784F8F860FB791846FFF7CDFF034696
:10497C00FB72FA79264913465B0013449B000B44E7
:10498C0002331B78FA7A9A421ED0FA7920491346E0
:10499C005B0013449B000B440433FA681A60FA79E9
:1049AC001B4913465B0013449B000B440833002245
:1049BC001A70FA79164913465B0013449B000B449A
:1049CC000233FA7A1A7016E0FA79114913465B0031
:1049DC0013449B000B4404331B68FA68D31A092B4D
:1049EC0009D9FA790A4913465B0013449B000B441E
:1049FC000133FA7A1A70FA79054913465B001344AD
:104A0C009B000B4401331B7818461037BD4680BD04
:104A1C00B802002080B582B000AF00237B6007E0B5
:104A2C007B68DBB21846FFF791FF7B6801337B6034
:104A3C007B68052BF4DD00BF00BF0837BD4680BD89
:104A4C0080B586B002AF0346FB71104B1B78002B70
:104A5C0004D0FB7943F00803DBB2FB710C4B1868F4
:104A6C00FA1D6423009301234E21FEF785F90346BA
:104A7C00FB73FB7B002B04D0FB7B1946054801F034
:104A8C005DFFFB7B18461037BD4680BD65000020DE
:104A9C00000300200C76000880B584B000AF0346FC
:104AAC000A46FB711346BB7197F9073023F00F03CD
:104ABC005AB2BB79002B14BF01230023DBB25BB2CB
:104ACC0013435BB2FB73FB7B43F00403DBB218466E
:104ADC00FFF7B6FF0120FCF7D3FFFB7B1846FFF76F
:104AEC00AFFF0120FCF7CCFF00BF1037BD4680BDE7
:104AFC0080B582B000AF03460A46FB711346BB710A
:104B0C00FB7923F00F03DBB2BA7911461846FFF795
:104B1C00C3FFFB791B01DBB2BA7911461846FFF7CC
:104B2C00BBFF00BF0837BD4680BD000080B582B01A
:104B3C0000AF7860354A7B681360354B01221A70E0
:104B4C004E222721334801F0F9FE304B18686423BC
:104B5C0003224E21FEF77AFC0346002B05D02721B9
:104B6C002D4801F0EBFE00234CE02C4801F04EFFE9
:104B7C003220FCF785FF00213020FFF78DFF052048
:104B8C00FCF77EFF00213020FFF786FF0120FCF7A9
:104B9C0077FF00213020FFF77FFF0120FCF770FF2B
:104BAC0000212020FFF778FF0120FCF769FF282067
:104BBC0000F03AF80120FCF763FF082000F034F80D
:104BCC000120FCF75DFF012000F02EF80220FCF71D
:104BDC0057FF062000F028F80120FCF751FF0C20AD
:104BEC0000F022F80120FCF74BFF0D4801F00EFFFE
:104BFC000C4800F06FF84FF47A70FCF741FF00F0AE
:104C0C0038F8012318460837BD4680BD0003002044
:104C1C006500002020760008587600089076000881
:104C2C00B8760008D876000880B582B000AF03468D
:104C3C00FB71FB7900211846FFF75AFFFB79012B1A
:104C4C0002D0FB79022B02D10220FCF719FF00BF26
:104C5C000837BD4680BD80B582B000AF0346FB71FE
:104C6C00FB7901211846FFF743FF00BF0837BD460B
:104C7C0080BD80B500AF0120FFF7D6FF00BF80BD1F
:104C8C0080B584B000AF03460A46FB711346BB7176
:104C9C000F4BFB60FB79012B01D90123FB71BB7915
:104CAC000F2B01D90F23BB71FB7910333B4413F845
:104CBC00042CBB791344DBB25BB263F07F035BB2B1
:104CCC00DBB21846FFF7B0FF00BF1037BD4680BD02
:104CDC000040145480B582B000AF786006E07B6869
:104CEC005A1C7A601B781846FFF7B5FF7B681B7857
:104CFC00002BF4D100BF00BF0837BD4680BD0000BB
:104D0C0080B483B000AF7860074A7B681360064BB1
:104D1C001B68002B14BF01230023DBB218460C3791
:104D2C00BD4680BC704700BF0403002080B582B034
:104D3C0000AF0023FB800F4B1B681846FCF7BEFA34
:104D4C000C4B1B6864211846FCF792FB0346002BA6
:104D5C0006D1084B1B681846FCF790FC0346FB80F9
:104D6C00044B1B681846FCF757FBFB8818460837A2
:104D7C00BD4680BD0403002080B582B000AFFFF7B4
:104D8C00D5FF03467B807B8840F6D762934202D9DD
:104D9C0000237B6013E07B8840F2DC52934202D804
:104DAC0064237B600BE07B88A3F2DC53074A82FB15
:104DBC0003121A441211DB179B1A64337B607B6855
:104DCC00DBB218460837BD4680BD00BFC94216B2DB
:104DDC0080B500AF00F014F800BF80BD80B500AF07
:104DEC0000224FF400610448FDF785FD034B0122BE
:104DFC001A7000BF80BD00BF0008014008030020EE
:104E0C0080B500AF01224FF400610448FDF773FD3B
:104E1C00034B00221A7000BF80BD00BF0008014088
:104E2C000803002080B400AF024B1B781846BD4627
:104E3C0080BC70470803002080B483B000AF0346E9
:104E4C00FB71FB791B09DBB21A46920013445B0021
:104E5C00DAB2FB7903F00F03DBB21344DBB2184672
:104E6C000C37BD4680BC704780B483B000AF03469E
:104E7C00FB71FB790D4AA2FB0323DB08DBB25BB2AF
:104E8C001B0158B2FA79094BA3FB0213D9080B4644
:104E9C009B000B445B00D31ADBB25BB203435BB2E7
:104EAC00DBB218460C37BD4680BC7047CDCCCCCCA1
:104EBC0080B58AB002AF78605A4A7B68136068216B
:104ECC00594801F03BFD574B186864230322D0214D
:104EDC00FEF7BCFA0346002B04D0544801F096FDB3
:104EEC0000239BE0524801F091FD0E23BB774D4B04
:104EFC00186807F11E02642300930123D021FDF7EB
:104F0C003BFF0346002B04D04A4801F07FFD0023F1
:104F1C0084E0444B186807F11F02642300930123BB
:104F2C00D021FEF727F80346002B04D0424801F0AD
:104F3C006DFD002372E0FB7F1946404801F0FEFC3A
:104F4C00FB7F5BB2002B20DA3D4801F05FFDFB7F5D
:104F5C0003F07F03DBB2FB770E233B76FB7F7B7684
:104F6C00304B186807F11802642300930223D021F8
:104F7C00FDF702FF0346002B04D0324801F046FD3A
:104F8C0000234BE0304801F041FD0F23BB77254B4C
:104F9C00186807F11E02642300930123D021FDF74A
:104FAC00EBFE204B186807F11D02642300930123CC
:104FBC00D021FDF7DFFF7B7F1946244801F0BEFCB2
:104FCC007B7F5BB2002B28DA214801F01FFD7B7F31
:104FDC0003F07F03DBB27B770F233B757B7F7B7505
:104FEC00104B186807F11402642300930223D0219C
:104FFC00FDF7C2FE174A07F10C0392E80300186094
:10500C000433198002330A0C1A7007F10C0318468A
:10501C0000F0BCF8104801F0F9FC012318462037C9
:10502C00BD4680BD0C030020E47600080C77000818
:10503C00347700084877000878770008A8770008CC
:10504C00CC770008F877000824780008407800082E
:10505C0064780008CC780008A478000880B588B083
:10506C0002AF7860484B1B68002B01D1002386E00F
:10507C000023FB73444B186807F10F026423009361
:10508C000123D021FDF778FE0346002B01D000232D
:10509C0075E03D4B186807F1100264230093072359
:1050AC00D021FDF767FF0346002B01D0002366E0FB
:1050BC003B7C03F07F03DBB21846FFF7BDFE0346D3
:1050CC001A467B681A707B7C03F07F03DBB21846B0
:1050DC00FFF7B2FE03461A467B685A70BB7C03F09E
:1050EC004003002B16D0BB7C03F01F03DBB2184629
:1050FC00FFF7A2FE03461A467B689A70BB7C03F04E
:10510C002003002B11D07B689B780C33DAB27B68C0
:10511C009A700AE0BB7C03F03F03DBB21846FFF742
:10512C008BFE03461A467B689A70FB7C03F00703E0
:10513C00DBB21846FFF780FE03461A467B68DA702E
:10514C003B7D03F03F03DBB21846FFF775FE0346C9
:10515C001A467B681A717B7D03F01F03DBB218467D
:10516C00FFF76AFE03461A467B685A71BB7D1846E8
:10517C00FFF762FE03461A467B689A7101231846B4
:10518C001837BD4680BD00BF0C03002080B588B029
:10519C0002AF7860404B1B68002B01D1002376E0F6
:1051AC0000233B747B681B781846FFF75DFE0346B3
:1051BC007B747B685B781846FFF756FE0346BB741E
:1051CC007B689B781846FFF74FFE0346FB747B68A1
:1051DC00DB781846FFF748FE03463B757B681B7966
:1051EC001846FFF741FE03467B757B685B791846D2
:1051FC00FFF73AFE0346BB757B689B791846FFF7B1
:10520C0033FE0346FB75244B186807F11002642328
:10521C0000930823D021FDF7AFFD0346002B01D0EE
:10522C00002334E00F23FB731B4B186807F10F02AC
:10523C00642300930123D021FDF79EFD164B1868C3
:10524C0007F10E02642300930123D021FDF792FE97
:10525C00BB7B03F07F03DBB2BB730F233B73BB7BC6
:10526C007B730D4B186807F10C0264230093022327
:10527C00D021FDF781FD7B689B7819467B685B78B4
:10528C001A467B681B78054801F058FB0123184629
:10529C001837BD4680BD00BF0C030020D478000831
:1052AC0080B485B000AF78600D4B5B68FB600D4B34
:1052BC001B680D4AA2FB03239A0C7B6802FB03F3C9
:1052CC00BB6000BF064B5A68FB68D31ABA689A4297
:1052DC00F8D800BF00BF1437BD4680BC704700BF74
:1052EC00001000E05C00002083DE1B4380B586B01C
:1052FC0000AF244B9B69234A43F008039361214B75
:10530C009B6903F008037B607B681F4BDB6803F031
:10531C008073002B0ED11C4BDB681B4A43F080734F
:10532C00D3601A4B00225A60184B1B68174A43F083
:10533C000103136007F1080300221A605A609A6097
:10534C00DA604FF48063BB601123FB6001233B6187
:10535C0003237B6107F1080319460D48FDF730F96B
:10536C0000F056F84FF47A70FCF78AFB094B0122D7
:10537C001A70094801F04AFB012318461837BD463C
:10538C0080BD00BF00100240F0ED00E0001000E016
:10539C00000C014018030020F078000880B584B0A0
:1053AC0000AF3B4600221A605A609A60DA604FF4F4
:1053BC0080633B6011237B600123BB600323FB6094
:1053CC003B4619460348FDF7FBF800BF1037BD46B6
:1053DC0080BD00BF000C014080B584B000AF3B46DF
:1053EC0000221A605A609A60DA604FF480633B6066
:1053FC0000237B600123BB603B4619460348FDF745
:10540C00DFF800BF1037BD4680BD00BF000C014067
:10541C0080B500AF01224FF480610248FDF76BFAB2
:10542C0000BF80BD000C014080B500AF00224FF4DE
:10543C0080610248FDF75FFA00BF80BD000C01409F
:10544C0080B500AF4FF480610248FDF73DFA03468A
:10545C00184680BD000C014080B500AFFFF79EFFE1
:10546C00FFF7E2FF1220FCF70BFBFFF7D1FF1E202A
:10547C00FFF716FFFFF7B0FF0123184680BD0000B1
:10548C0080B582B000AF0023FB710023FB7105E0F7
:10549C00FB790133FB710120FFF702FFFFF7D0FF0F
:1054AC000346002B02D0FB79632BF1D9FB79632BDC
:1054BC0004D91E4801F0AAFA002332E00023FB7144
:1054CC0005E0FB790133FB710120FFF7E9FEFFF7E3
:1054DC00B7FF0346002B02D1FB79632BF1D9FB7983
:1054EC00632B04D9124801F091FA002319E0002330
:1054FC00FB7105E0FB790133FB710120FFF7D0FE56
:10550C00FFF79EFF0346002B02D0FB79632BF1D9EA
:10551C00FB79632B04D9074801F078FA002300E0EB
:10552C00012318460837BD4680BD00BF107900081E
:10553C00307900085479000880B582B000AF0023A0
:10554C00FB710023BB7100237B7138E00023BB711E
:10555C0005E0BB790133BB710120FFF7A1FEFFF71A
:10556C006FFF0346002B02D1BB79632BF1D92820A6
:10557C00FFF796FEFFF764FF0346002B0BD07B79F9
:10558C00C3F10703012202FA03F35AB297F9073069
:10559C0013435BB2FB710023BB7105E0BB79013394
:1055AC00BB710120FFF77CFEFFF74AFF0346002B7F
:1055BC0002D0BB79632BF1D97B7901337B717B7979
:1055CC00072BC3D9FB7918460837BD4680BD0000B0
:1055DC00B0B586B002AF6B4B1B7883F00103DBB226
:1055EC00002B01D00023C8E0FCF740FA0246664BC2
:1055FC001B68D31AB3F5FA6F01D20023BDE03B1D33
:10560C0000221A601A7172B600BFFFF725FFFFF770
:10561C0037FF034683F00103DBB2002B03D062B6E5
:10562C0000BF0023A9E00023FB730CE0FC7BFFF719
:10563C0083FF03461A4604F110033B4403F80C2C79
:10564C00FB7B0133FB73FB7B042BEFD962B600BFF2
:10565C00FFF7A4FEFFF7DCFE3A797B791344DAB24C
:10566C00BB791344DAB2FB791344BB733B7ABA7B34
:10567C009A4207D0BB7B3A7A1946444801F05EF94E
:10568C0000237AE03B791BB21B021AB27B791BB266
:10569C0013431BB2BB81BB891846FAF7A7FF03461D
:1056AC003B491846FBF7AAF803461A46394B1A60D1
:1056BC00BB791BB21B021BB203F4FE431AB2FB797B
:1056CC001BB213431BB27B817B891846FAF78EFF02
:1056DC0003462F491846FBF791F803461A462E4B02
:1056EC001A60BB795BB2002B05DA2B4B1B6883F07D
:1056FC000043294A1360274B1B684FF000011846E2
:10570C00FBF766F90346002B1AD1224B1B68234981
:10571C001846FBF77BF90346002B11D11E4B1B6877
:10572C001F491846FBF754F90346002B08D11A4BB6
:10573C001B681C491846FBF769F90346002B16D069
:10574C00154B1B681846FAF73FFE04460D46114BE5
:10575C001B681846FAF738FE02460B46CDE90023C3
:10576C0022462B46104801F0E9F8002305E0FCF72F
:10577C007DF90346044A1360012318461037BD46D1
:10578C00B0BD00BF180300201C0300207479000872
:10579C000000204114030020100300200000C84228
:1057AC00000020C20000A042B079000880B400AF15
:1057BC00024B1B681846BD4680BC70471003002086
:1057CC0080B400AF024B1B681846BD4680BC7047C6
:1057DC001403002080B582B000AFFFF74FF8002310
:1057EC007B603DE022497A6813465B0013449B00C2
:1057FC000B4400221A701E497A6813465B0013444E
:10580C009B000B44013300221A7019497A68134625
:10581C005B0013449B000B44023300221A701449A2
:10582C007A6813465B0013449B000B44033300223D
:10583C001A700F497A6813465B0013449B000B44A3
:10584C00043300221A700A497A6813465B00134429
:10585C009B000B44083300221A607B6801337B6089
:10586C007B68052BBEDD00BF00BF0837BD4680BD81
:10587C002003002080B584B000AFFCF7F7F8B860C7
:10588C00FFF7C8F80023FB607DE0FB68DBB218462D
:10589C00FFF75CF80346FB713F49FA6813465B005F
:1058AC0013449B000B4401331B78FA799A4235D090
:1058BC00FB79002B1ED03849FA6813465B00134461
:1058CC009B000B44023301221A703349FA681346C9
:1058DC005B0013449B000B440833BA681A602E49D2
:1058EC00FA6813465B0013449B000B4404330022FC
:1058FC001A7009E02849FA6813465B0013449B00B0
:10590C000B44033301221A702349FA6813465B00D7
:10591C0013449B000B440133FA791A70FB79002B6A
:10592C0025D01D49FA6813465B0013449B000B44B9
:10593C0004331B7883F00103DBB2002B17D016491C
:10594C00FA6813465B0013449B000B4408331B6836
:10595C00BA68D31AB3F57A7F09D30F49FA6813469C
:10596C005B0013449B000B44043301221A700A4958
:10597C00FA6813465B0013449B000B44FA791A70C7
:10598C00FB680133FB60FB68052B7FF77EAF00BF24
:10599C0000BF1037BD4680BD2003002080B483B00B
:1059AC0000AF0346FB71FB79052B01D9002317E0EF
:1059BC00FA790E4913465B0013449B000B440233E7
:1059CC001B78002B0BD0FA79084913465B00134463
:1059DC009B000B44023300221A70012300E00023C9
:1059EC0018460C37BD4680BC704700BF2003002012
:1059FC0080B582B000AF78607868FFF797F80346FF
:105A0C0083F00103DBB2002B02D0034800F0FEFF51
:105A1C0000BF0837BD4680BDE879000880B500AFEF
:105A2C00FFF727F900210020FFF72AF90548FFF7B7
:105A3C0051F900210120FFF723F90348FFF74AF938
:105A4C0000BF80BD207A0008347A000880B588B089
:105A5C0000AF0346FB7100210020FFF711F90C4841
:105A6C00FFF738F900210120FFF70AF9FB7907F15C
:105A7C000C00084A112100F0D1FF00233B7707F1FD
:105A8C000C031846FFF726F900BF2037BD4680BD32
:105A9C00447A0008587A000880B58AB002AF786062
:105AAC00396000210020FFF7EBF87868FAF78CFCDE
:105ABC0002460B4607F10C00CDE90023134A1121D5
:105ACC0000F0ACFF00233B7707F10C031846FFF7FF
